:020000040800F2
:10000000005000209D040008410400084704000837
:100010004D040008530400085904000800000000C3
:100020000000000000000000000000005F04000865
:100030006B04000800000000770400088304000837
:10004000E5040008E5040008E5040008E5040008EC
:10005000E5040008E5040008E5040008E5040008DC
:10006000E5040008E5040008E5040008E5040008CC
:10007000E5040008E5040008E5040008E5040008BC
:10008000E5040008E5040008E5040008E5040008AC
:10009000E5040008E5040008E5040008E50400089C
:1000A000E5040008E5040008E5040008E50400088C
:1000B000E5040008E5040008E5040008E50400087C
:1000C000E5040008E5040008E5040008E50400086C
:1000D000E5040008E5040008E5040008E50400085C
:1000E000E5040008E5040008E5040008000000003D
:1000F0000000000000000000000000000000000000
:0C01000000000000000000005FF808F1A3
:10010C0010B5054C237833B9044B13B10448AFF345
:10011C0000800123237010BD0C00002000000000A3
:10012C00CC0F000808B5034B1BB103490348AFF3D0
:10013C00008008BD0000000010000020CC0F00085B
:10014C0080B483B000AF064B7B607B681B6823F0E8
:10015C0010027B681A6000BF0C37BD4680BC70472C
:10016C000C08014080B483B000AF064B7B607B6809
:10017C001B6843F010027B681A6000BF0C37BD4649
:10018C0080BC70470C08014080B586B000AF344B82
:10019C009B69334A43F004039361314B9B6903F031
:1001AC000403BB60BB682F4B7B617B691B6823F42A
:1001BC0040227B691A607B691B6823F440027B69CF
:1001CC001A607B691B6823F040627B691A607B694B
:1001DC001B6823F040427B691A607B691B6843F003
:1001EC00004343F400037A6913607B691B6843F096
:1001FC0000627B691A601C4B3B613B691B6823F0F6
:10020C0001023B691A60164B9B69154A43F48053F3
:10021C009361134B9B6903F480537B607B68134B96
:10022C00FB60FB681B6843F00402FB681A60FB6808
:10023C001B6843F02002FB681A60FB681B6843F4E0
:10024C004072FB681A60FB681B6843F04002FB6855
:10025C001A60FFF787FF00BF1837BD4680BD00BF8F
:10026C000010024000080140040001400030014031
:10027C0080B586B000AF0346FB71FFF761FF2A4BD8
:10028C007B612A4B3B6100BF7B691B685B0803F0F9
:10029C000103002BF8D0FA793B691A6000BF7B6927
:1002AC001B685B0803F00103002BF8D100BF7B69CE
:1002BC001B6803F00103002BF9D000BF7B691B689E
:1002CC00DB0903F00103002BF8D13B691B68FB73BE
:1002DC0000BF7B691B685B0803F00103002BF8D09F
:1002EC003B69FF221A6000BF7B691B685B0803F047
:1002FC000103002BF8D100BF7B691B6803F00103DD
:10030C00002BF9D000BF7B691B68DB0903F00103EC
:10031C00002BF8D13B691B68FB73FFF723FFFB7BBA
:10032C0018461837BD4680BD083001400C300140DE
:10033C0080B500AF00F0D2F800F00AF8FFF724FF08
:10034C008020FFF795FF4FF47A7000F029F9F7E75A
:10035C0080B590B000AF07F1180328220021184691
:10036C0000F026FE3B1D00221A605A609A60DA608B
:10037C001A610223BB610123BB621023FB620023C1
:10038C007B6307F11803184600F012FA0346002BA2
:10039C0001D000F018F80F237B600023BB60002312
:1003AC00FB6000233B6100237B613B1D0021184651
:1003BC0000F07EFC0346002B01D000F004F800BFD7
:1003CC004037BD4680BD80B400AF72B600BFFEE7BB
:1003DC0080B485B000AF154B9B69144A43F0010300
:1003EC009361124B9B6903F00103BB60BB680F4B1D
:1003FC00DB690E4A43F08053D3610C4BDB6903F08D
:10040C0080537B607B680A4B5B68FB60FB6823F066
:10041C00E063FB60FB6843F08063FB60044AFB68AD
:10042C00536000BF1437BD4680BC704700100240BB
:10043C000000014080B400AFFEE780B400AFFEE7DF
:10044C0080B400AFFEE780B400AFFEE780B400AF2D
:10045C00FEE780B400AF00BFBD4680BC704780B4DF
:10046C0000AF00BFBD4680BC704780B400AF00BF7A
:10047C00BD4680BC704780B500AF00F075F800BF7A
:10048C0080BD80B400AF00BFBD4680BC704700008B
:10049C00FFF7F7FF0B480C490C4A002302E0D45835
:1004AC00C4500433C4188C42F9D3094A094C0023B4
:1004BC0001E013600432A242FBD300F055FDFFF7BC
:1004CC0037FF7047000000200C00002010100008BF
:1004DC000C0000202C000020FEE7000080B500AFCF
:1004EC00084B1B68074A43F010031360032000F00D
:1004FC002BF90F2000F008F8FFF76AFF00231846CD
:10050C0080BD00BF0020024080B582B000AF786093
:10051C00124B1A68124B1B7819464FF47A73B3FBC3
:10052C00F1F3B2FBF3F3184600F035F90346002B58
:10053C0001D001230EE07B680F2B0AD800227968CA
:10054C004FF0FF3000F00BF9064A7B681360002374
:10055C0000E0012318460837BD4680BD000000208E
:10056C00080000200400002080B400AF054B1B786D
:10057C001A46054B1B681344034A136000BFBD4663
:10058C0080BC7047080000202800002080B400AF19
:10059C00024B1B681846BD4680BC704728000020E3
:1005AC0080B584B000AF7860FFF7F0FFB8607B686F
:1005BC00FB60FB68B3F1FF3F05D00A4B1B781A4672
:1005CC00FB681344FB6000BFFFF7E0FF0246BB680B
:1005DC00D31AFA689A42F7D800BF00BF1037BD464D
:1005EC0080BD00BF0800002080B485B000AF7860EB
:1005FC007B6803F00703FB600C4BDB68BB60BA68DD
:10060C004FF6FF031340BB60FB681A02BB68134331
:10061C0043F0BF6343F40033BB60044ABB68D36050
:10062C0000BF1437BD4680BC704700BF00ED00E032
:10063C0080B400AF044BDB681B0A03F007031846B9
:10064C00BD4680BC704700BF00ED00E080B483B0B5
:10065C0000AF03463960FB7197F90730002B0ADBBA
:10066C003B68DAB20C4997F907301201D2B20B444D
:10067C0083F800230AE03B68DAB20849FB7903F0FF
:10068C000F03043B1201D2B20B441A7600BF0C3795
:10069C00BD4680BC704700BF00E100E000ED00E00B
:1006AC0080B489B000AFF860B9607A60FB6803F081
:1006BC000703FB61FB69C3F10703042B28BF042369
:1006CC00BB61FB690433062B02D9FB69033B00E0D9
:1006DC0000237B614FF0FF32BB6902FA03F3DA436C
:1006EC00BB681A407B699A404FF0FF317B6901FA75
:1006FC0003F3D9437B680B40134318462437BD469C
:10070C0080BC704780B582B000AF78607B68013BDD
:10071C00B3F1807F01D301230FE00A4A7B68013BD0
:10072C0053600F214FF0FF30FFF790FF054B002275
:10073C009A60044B07221A60002318460837BD46FE
:10074C0080BD00BF10E000E080B582B000AF7860E3
:10075C007868FFF749FF00BF0837BD4680BD80B5FC
:10076C0086B000AF0346B9607A60FB7300237B61EF
:10077C00FFF75EFF78617A68B9687869FFF790FFD8
:10078C00024697F90F3011461846FFF75FFF00BF7E
:10079C001837BD4680BD80B582B000AF78607868F0
:1007AC00FFF7B0FF034618460837BD4680BD000072
:1007BC0080B586B000AF78607B68002B01D1012337
:1007CC006CE27B681B6803F00103002B00F0878050
:1007DC00924B5B6803F00C03042B0CD08F4B5B68C3
:1007EC0003F00C03082B12D18C4B5B6803F48033A1
:1007FC00B3F5803F0BD1894B1B6803F40033002BFE
:10080C006CD07B685B68002B68D1012346E27B6867
:10081C005B68B3F5803F06D1804B1B687F4A43F47D
:10082C00803313602EE07B685B68002B0CD17B4B14
:10083C001B687A4A23F480331360784B1B68774A21
:10084C0023F4802313601DE07B685B68B3F5A02F55
:10085C000CD1724B1B68714A43F4802313606F4BAD
:10086C001B686E4A43F4803313600BE06B4B1B68C0
:10087C006A4A23F480331360684B1B68674A23F47D
:10088C00802313607B685B68002B13D0FFF77EFE20
:10089C00386108E0FFF77AFE02463B69D31A642BF5
:1008AC0001D90323FAE15D4B1B6803F40033002BE1
:1008BC00F0D014E0FFF76AFE386108E0FFF766FE3F
:1008CC0002463B69D31A642B01D90323E6E1534B4F
:1008DC001B6803F40033002BF0D100E000BF7B68F1
:1008EC001B6803F00203002B63D04C4B5B6803F0D6
:1008FC000C03002B0BD0494B5B6803F00C03082B4B
:10090C001CD1464B5B6803F48033002B16D1434B50
:10091C001B6803F00203002B05D07B681B69012BBD
:10092C0001D00123BAE13D4B1B6823F0F8027B6830
:10093C005B69DB00394913430B603AE07B681B6948
:10094C00002B20D0364B01221A60FFF71FFE3861B6
:10095C0008E0FFF71BFE02463B69D31A022B01D9B4
:10096C0003239BE12D4B1B6803F00203002BF0D0FB
:10097C002A4B1B6823F0F8027B685B69DB00274974
:10098C0013430B6015E0264B00221A60FFF7FEFDA7
:10099C00386108E0FFF7FAFD02463B69D31A022BD7
:1009AC0001D903237AE11D4B1B6803F00203002BD2
:1009BC00F0D17B681B6803F00803002B3AD07B68EE
:1009CC009B69002B19D0174B01221A60FFF7DEFD33
:1009DC00386108E0FFF7DAFD02463B69D31A022BB7
:1009EC0001D903235AE10D4B5B6A03F00203002B80
:1009FC00F0D0012000F09AFA1CE00A4B00221A6099
:100A0C00FFF7C4FD38610FE0FFF7C0FD02463B69FC
:100A1C00D31A022B08D9032340E100BF0010024077
:100A2C0000004242800442429E4B5B6A03F0020388
:100A3C00002BE9D17B681B6803F00403002B00F04A
:100A4C00A6800023FB75974BDB6903F08053002BCA
:100A5C000DD1944BDB69934A43F08053D361914B96
:100A6C00DB6903F08053BB60BB680123FB758E4BC5
:100A7C001B6803F48073002B18D18B4B1B688A4ABC
:100A8C0043F480731360FFF781FD386108E0FFF7D2
:100A9C007DFD02463B69D31A642B01D90323FDE08B
:100AAC00814B1B6803F48073002BF0D07B68DB68F0
:100ABC00012B06D17B4B1B6A7A4A43F0010313626C
:100ACC002DE07B68DB68002B0CD1764B1B6A754ADA
:100ADC0023F001031362734B1B6A724A23F0040365
:100AEC0013621CE07B68DB68052B0CD16D4B1B6A19
:100AFC006C4A43F0040313626A4B1B6A694A43F065
:100B0C00010313620BE0674B1B6A664A23F0010377
:100B1C001362644B1B6A634A23F0040313627B6801
:100B2C00DB68002B15D0FFF731FD38610AE0FFF7C9
:100B3C002DFD02463B69D31A41F28832934201D90A
:100B4C000323ABE0574B1B6A03F00203002BEED0E0
:100B5C0014E0FFF71BFD38610AE0FFF717FD0246B2
:100B6C003B69D31A41F28832934201D9032395E0B1
:100B7C004C4B1B6A03F00203002BEED1FB7D012BC7
:100B8C0005D1484BDB69474A23F08053D3617B681E
:100B9C00DB69002B00F08180424B5B6803F00C0397
:100BAC00082B61D07B68DB69022B46D13F4B0022BE
:100BBC001A60FFF7EBFC386108E0FFF7E7FC024630
:100BCC003B69D31A022B01D9032367E0354B1B6811
:100BDC0003F00073002BF0D17B681B6AB3F5803FE8
:100BEC0008D1304B5B6823F400327B689B682D493D
:100BFC0013434B602B4B5B6823F474127B68196AAC
:100C0C007B685B6A0B43274913434B60274B0122DC
:100C1C001A60FFF7BBFC386108E0FFF7B7FC02462F
:100C2C003B69D31A022B01D9032337E01D4B1B68F8
:100C3C0003F00073002BF0D02FE01C4B00221A6045
:100C4C00FFF7A4FC386108E0FFF7A0FC02463B6903
:100C5C00D31A022B01D9032320E0124B1B6803F09B
:100C6C000073002BF0D118E07B68DB69012B01D1FC
:100C7C00012313E00B4B5B68FB60FB6803F48032D1
:100C8C007B681B6A9A4206D1FB6803F470127B687E
:100C9C005B6A9A4201D0012300E000231846183702
:100CAC00BD4680BD00100240007000406000424212
:100CBC0080B584B000AF786039607B68002B01D1BF
:100CCC000123D0E06A4B1B6803F007033A689A4291
:100CDC0010D9674B1B6823F0070265493B68134327
:100CEC000B60634B1B6803F007033A689A4201D010
:100CFC000123B8E07B681B6803F00203002B20D0B3
:100D0C007B681B6803F00403002B05D0594B5B6810
:100D1C00584A43F4E06353607B681B6803F0080394
:100D2C00002B05D0534B5B68524A43F4605353601D
:100D3C00504B5B6823F0F0027B689B684D49134372
:100D4C004B607B681B6803F00103002B40D07B6871
:100D5C005B68012B07D1474B1B6803F40033002B56
:100D6C0015D101237FE07B685B68022B07D1414BD7
:100D7C001B6803F00073002B09D1012373E03D4B7A
:100D8C001B6803F00203002B01D101236BE0394BEC
:100D9C005B6823F003027B685B68364913434B6046
:100DAC00FFF7F4FBF8600AE0FFF7F0FB0246FB6884
:100DBC00D31A41F28832934201D9032353E02D4BCD
:100DCC005B6803F00C027B685B689B009A42EBD17A
:100DDC00274B1B6803F007033A689A4210D2244B46
:100DEC001B6823F0070222493B6813430B60204B1E
:100DFC001B6803F007033A689A4201D0012332E0E2
:100E0C007B681B6803F00403002B08D0194B5B684C
:100E1C0023F4E0627B68DB68164913434B607B6804
:100E2C001B6803F00803002B09D0124B5B6823F4FA
:100E3C0060527B681B69DB000E4913434B6000F06A
:100E4C0021F802460B4B5B681B0903F00F030A49A0
:100E5C00CB5C22FA03F3094A1360094B1B68184652
:100E6C00FFF752FB002318461037BD4680BD00BF6C
:100E7C000020024000100240E40F00080000002097
:100E8C000400002080B487B000AF0023FB60002377
:100E9C00BB6000237B6100237B6000233B611E4B06
:100EAC005B68FB60FB6803F00C03042B02D0082B7F
:100EBC0003D027E0194B3B6127E0FB689B0C03F048
:100ECC000F03174AD35C7B60FB6803F48033002B61
:100EDC0010D0114B5B685B0C03F00103114AD35C1F
:100EEC00BB607B680D4A02FB03F2BB68B2FBF3F3F9
:100EFC007B6104E07B680C4A02FB03F37B617B693A
:100F0C003B6102E0054B3B6100BF3B6918461C3757
:100F1C00BD4680BC704700BF0010024000127A0032
:100F2C00F40F00080410000800093D0080B485B0DF
:100F3C0000AF78600A4B1B680A4AA2FB03235B0ACA
:100F4C007A6802FB03F3FB6000BFFB685A1EFA6071
:100F5C00002BF9D100BF00BF1437BD4680BC7047D1
:100F6C0000000020D34D621070B500260C4D0D4CC6
:100F7C00641BA410A64209D100F022F800260A4DE9
:100F8C000A4C641BA410A64205D170BD55F8043B55
:100F9C0098470136EEE755F8043B98470136F2E7DF
:100FAC000810000808100008081000080C100008B1
:100FBC0003460244934200D1704703F8011BF9E742
:100FCC00F8B500BFF8BC08BC9E467047F8B500BF2A
:080FDC00F8BC08BC9E467047FA
:100FE40000000000000000000102030406070809D5
:100FF40002030405060708090A0B0C0D0E0F101056
:0410040001020000E5
:0410080031010008AA
:04100C000D010008CA
:0C10100000127A00100000000100000037
:040000050800049D4E
:00000001FF
